import { expect } from 'chai'

import { TransactionParserTest } from '../contracts/txParserTest'
import { toByteString } from 'scrypt-ts'

describe('Test TransactionParserTest', () => {
    let parserTest: TransactionParserTest

    before(async () => {
        await TransactionParserTest.compile()
        parserTest = new TransactionParserTest()
    })

    it('should pass', () => {
        const result = parserTest.verify((self) => {
            self.unlock(
                toByteString(
                    '010000000134506e6c42b7d3b00b730d9589e63368e91b9ddad2822d32977b5cf91233f6cc010000006a473044022016fffa4d938d729edf195eb2c87a9d35ee3c55bc44413baf8ba3f83ff12b3b5602201cc7e51b139e52e42d5697a8354f657e78e3389a79e0d07c8ccba3b419a2f2d5412102d93fcc370b05b31b9e78e37d38448572b6813e55b54bbbe1772a03882529f402ffffffff020000000000000000fd1d07006a076d423a646f63314d1007a56a63697068657274657874d8405904f300ef08d144e7af2a94bd897c65f5b1b15b7dfd3865b252f748cbd119f166a5e7376902996a41fc0086cbfc7bf476feaecb2ac9e577206a059b75403bf6359db9f55191887507674512513d7918e1b0853f9f5ced3949ab8605ccded93b9782056a74e5b8287c71b097c18a680abda46e67f519746f02a4cf66a855441007803e776cd7e5bc9c490d46056d039c8506926ed6faf1c48b530e2a4a4f4f416aad866a2b566a4f468ca0e2d2b2ce612c5078e6181da1fac8410a6ae2dcd685764d0f428fb3fa5da44e799296104716359ba3e527121d05c680423a77aa517f0dcd16ffa24bd2ba402f08b2b36aa062b024269561d2e20e9e217a1b922a31208a88ba1a42437a62999cb907bbd97d6b353998d5d40b8f493eb4be6c94a78512d34e76f6ca06d5401075206a1c1edc9555564631e902eb26056ebd1c4fa4f67512c1c0e5c4511b286b1a3296817fd29d1aec91e34c09da527029d2db4e02a4bceb17bf8ad6263f9c212f5ba6e9bbab43519c3080cc1000e47ca4ebdad7e67ff66aa6d85f83bfb47f532b3d5c5f12318dabf9cba0888a92c6c445734d116eb3eff1dae52615a2301a7f3dc90f72e3b19def56d5cf5ffe2a5e3278596f3bdef5b1f0d04584dfb0bdc7c18e232f29a94dc998e8fc03c502a81f09c752cb559335701d9b18085860b9ee9a48e7f455a2417ffce7e949c0707cba89bd1a56a8415eaab5570ca7bad80fd9115176db32edca251b9a6d3a159267384ad8228fd849365e0d9229f2adc0d40a0c54ff77986beb14bceb06ad5224ff07f909735a4dc513b2e01dada96b4a399985be501a8994f1005722fe6db630082eef066ee28b3d59bee0569af1f73a3945263be7db061d42afe4b8565714d45938f7a241a4830595acabfc11a1b059b4ab6ce42855b72a18068d6d2d3f561422e056b1135b92169edd0a809c7baf975a8fc183430d7e0db6c200cfd9475a2adc9197b436e03f5809817b36f53c9066adcd61410e68efd6bcc775867ef162cd2caf5eaaba90f412472ee60a624d28172b1779777acca61637a7d0a2fa2f00e6a828c2c402caec8993fb4c41e45e309f872f4c5ea946359f57c4a0762bfd0fba266d68fe64977ec6f3e5ca7928cdef7f071ddcd885f6e2c3c7ed72c4b0d0a6a58f3801cda571dab809d15ffe5d6b62bc38f2af9f2954ef33154b1e7945a310f34af1491a26e2f2257bf64b8c26568eec2f793cc7d8c61c3e8c4f67de4d76386c1835ecaba31393db460d52dcf70545aee31a3d4065e4da4a3459310877d73b78f6d212dbf2ab5505d9953bfd5f254f8dc9030fd5a376280539786d1c31333f3726e80680ae28626fb9c8bdae98b80e8b6d320084e10e3f07b7b6307904a9b441985f0ee7e6d1f140e24efb1a9c92cfcdfa024068e732d69583a6021f0796a74587811c56414d8049ad6509fffb384c16b0db116cada3d0dab24cf1b9115a2295b44f64e7dffb543e7f1f94c21d71da27848d6bc834fc149ce734604fb401af4349639a5f870cf4a70fb248db61059678299acf9ad258abf77daa9d9a4b5235c757b137f4fbfd4b5d6ea3580069b616a8b3506a28da798eac0a787391c4c3ecf691ced51d69d691cd6f4b32c19a504abdd85bfc99c2d4a49a66dce62acbc76ad8a347d27a1107853a6f85f1bccdd9f4009539e46d2036c0a27af14f35a37494802177f38caace94e6ba0fba04c728db7394142854eb1282c4f49943987d504e69cf0e45221a57a1d26d1b457573935347b7d67f0b492d91361366f984df4b8287626976d8404c00128fc302fd27daa3d2fb2d6a726563697069656e747382a26d656e637279707465645f6b6579782b6b473170656f6c377654664b515946636f724c78684f5956755147595a4273477254703953656568497a4566686561646572a463616c67694132353647434d4b57636b6964782b5334616c74325433646832484536515a6b4958636a384c61417037536f4a395135755852692d554f2d6e59626976704368535644664e3362494b526458327363746167765f64417357474c626a787935777733485f6771664777a26d656e637279707465645f6b6579783633755531516941696d394e456c7279755570464e454546676e4d3059656459506a64537a6977555671694e50424144496a325673765166686561646572a363616c676e454344482d45532b413235364b57636b6964782b6f553345374f74674d4335546a554c3234487151646430396b5546534255674d4d35526d43375541736c346365706ba46178782b4d5278383849615a4e357873682d526472586a313676794872666f43734e6473656a36456243586f7756736363727665502d323536636b74796245436179782b664867466c436a37435f7744345636636d323153317757563261574533764c50754e44573041537068745563746167d840503e827075bf0cea08195bd06836dd400c6970726f746563746564d840517b22656e63223a224132353647434d227dd2060000000000001976a91442df33690dc6bc346339bcd8e77c9a828af6eaf388ac00000000'
                ),
                {
                    txId: toByteString(
                        '34506e6c42b7d3b00b730d9589e63368e91b9ddad2822d32977b5cf91233f6cc'
                    ),
                    vout: 1n,
                    scriptSig: toByteString(
                        '473044022016fffa4d938d729edf195eb2c87a9d35ee3c55bc44413baf8ba3f83ff12b3b5602201cc7e51b139e52e42d5697a8354f657e78e3389a79e0d07c8ccba3b419a2f2d5412102d93fcc370b05b31b9e78e37d38448572b6813e55b54bbbe1772a03882529f402'
                    ),
                    nSequence: 4294967295n,
                },
                {
                    script: toByteString(
                        '006a076d423a646f63314d1007a56a63697068657274657874d8405904f300ef08d144e7af2a94bd897c65f5b1b15b7dfd3865b252f748cbd119f166a5e7376902996a41fc0086cbfc7bf476feaecb2ac9e577206a059b75403bf6359db9f55191887507674512513d7918e1b0853f9f5ced3949ab8605ccded93b9782056a74e5b8287c71b097c18a680abda46e67f519746f02a4cf66a855441007803e776cd7e5bc9c490d46056d039c8506926ed6faf1c48b530e2a4a4f4f416aad866a2b566a4f468ca0e2d2b2ce612c5078e6181da1fac8410a6ae2dcd685764d0f428fb3fa5da44e799296104716359ba3e527121d05c680423a77aa517f0dcd16ffa24bd2ba402f08b2b36aa062b024269561d2e20e9e217a1b922a31208a88ba1a42437a62999cb907bbd97d6b353998d5d40b8f493eb4be6c94a78512d34e76f6ca06d5401075206a1c1edc9555564631e902eb26056ebd1c4fa4f67512c1c0e5c4511b286b1a3296817fd29d1aec91e34c09da527029d2db4e02a4bceb17bf8ad6263f9c212f5ba6e9bbab43519c3080cc1000e47ca4ebdad7e67ff66aa6d85f83bfb47f532b3d5c5f12318dabf9cba0888a92c6c445734d116eb3eff1dae52615a2301a7f3dc90f72e3b19def56d5cf5ffe2a5e3278596f3bdef5b1f0d04584dfb0bdc7c18e232f29a94dc998e8fc03c502a81f09c752cb559335701d9b18085860b9ee9a48e7f455a2417ffce7e949c0707cba89bd1a56a8415eaab5570ca7bad80fd9115176db32edca251b9a6d3a159267384ad8228fd849365e0d9229f2adc0d40a0c54ff77986beb14bceb06ad5224ff07f909735a4dc513b2e01dada96b4a399985be501a8994f1005722fe6db630082eef066ee28b3d59bee0569af1f73a3945263be7db061d42afe4b8565714d45938f7a241a4830595acabfc11a1b059b4ab6ce42855b72a18068d6d2d3f561422e056b1135b92169edd0a809c7baf975a8fc183430d7e0db6c200cfd9475a2adc9197b436e03f5809817b36f53c9066adcd61410e68efd6bcc775867ef162cd2caf5eaaba90f412472ee60a624d28172b1779777acca61637a7d0a2fa2f00e6a828c2c402caec8993fb4c41e45e309f872f4c5ea946359f57c4a0762bfd0fba266d68fe64977ec6f3e5ca7928cdef7f071ddcd885f6e2c3c7ed72c4b0d0a6a58f3801cda571dab809d15ffe5d6b62bc38f2af9f2954ef33154b1e7945a310f34af1491a26e2f2257bf64b8c26568eec2f793cc7d8c61c3e8c4f67de4d76386c1835ecaba31393db460d52dcf70545aee31a3d4065e4da4a3459310877d73b78f6d212dbf2ab5505d9953bfd5f254f8dc9030fd5a376280539786d1c31333f3726e80680ae28626fb9c8bdae98b80e8b6d320084e10e3f07b7b6307904a9b441985f0ee7e6d1f140e24efb1a9c92cfcdfa024068e732d69583a6021f0796a74587811c56414d8049ad6509fffb384c16b0db116cada3d0dab24cf1b9115a2295b44f64e7dffb543e7f1f94c21d71da27848d6bc834fc149ce734604fb401af4349639a5f870cf4a70fb248db61059678299acf9ad258abf77daa9d9a4b5235c757b137f4fbfd4b5d6ea3580069b616a8b3506a28da798eac0a787391c4c3ecf691ced51d69d691cd6f4b32c19a504abdd85bfc99c2d4a49a66dce62acbc76ad8a347d27a1107853a6f85f1bccdd9f4009539e46d2036c0a27af14f35a37494802177f38caace94e6ba0fba04c728db7394142854eb1282c4f49943987d504e69cf0e45221a57a1d26d1b457573935347b7d67f0b492d91361366f984df4b8287626976d8404c00128fc302fd27daa3d2fb2d6a726563697069656e747382a26d656e637279707465645f6b6579782b6b473170656f6c377654664b515946636f724c78684f5956755147595a4273477254703953656568497a4566686561646572a463616c67694132353647434d4b57636b6964782b5334616c74325433646832484536515a6b4958636a384c61417037536f4a395135755852692d554f2d6e59626976704368535644664e3362494b526458327363746167765f64417357474c626a787935777733485f6771664777a26d656e637279707465645f6b6579783633755531516941696d394e456c7279755570464e454546676e4d3059656459506a64537a6977555671694e50424144496a325673765166686561646572a363616c676e454344482d45532b413235364b57636b6964782b6f553345374f74674d4335546a554c3234487151646430396b5546534255674d4d35526d43375541736c346365706ba46178782b4d5278383849615a4e357873682d526472586a313676794872666f43734e6473656a36456243586f7756736363727665502d323536636b74796245436179782b664867466c436a37435f7744345636636d323153317757563261574533764c50754e44573041537068745563746167d840503e827075bf0cea08195bd06836dd400c6970726f746563746564d840517b22656e63223a224132353647434d227d'
                    ),
                    satoshis: 0n,
                },
                1n,
                0n
            )
        })
        expect(result.success, result.error).to.be.true
    })

    it('should pass witt coinbase tx', () => {
        const result = parserTest.verify((self) => {
            self.unlock(
                toByteString(
                    '01000000010000000000000000000000000000000000000000000000000000000000000000ffffffff1a03afa00c2f7461616c2e636f6d2f9f3e331b9dbd6ababf680d00ffffffff0177f04225000000001976a914522cf9e7626d9bd8729e5a1398ece40dad1b6a2f88ac00000000'
                ),
                {
                    txId: toByteString(
                        '0000000000000000000000000000000000000000000000000000000000000000'
                    ),
                    vout: 4294967295n,
                    scriptSig: toByteString(
                        '03afa00c2f7461616c2e636f6d2f9f3e331b9dbd6ababf680d00'
                    ),
                    nSequence: 4294967295n,
                },
                {
                    script: toByteString(
                        '76a914522cf9e7626d9bd8729e5a1398ece40dad1b6a2f88ac'
                    ),
                    satoshis: 625143927n,
                },
                1n,
                0n
            )
        })
        expect(result.success, result.error).to.be.true
    })
})
